{
  "contractName": "SheepnapDAO",
  "abi": [
    {
      "inputs": [
        {
          "internalType": "address",
          "name": "_tokenaddress",
          "type": "address"
        }
      ],
      "stateMutability": "nonpayable",
      "type": "constructor"
    },
    {
      "anonymous": false,
      "inputs": [
        {
          "indexed": false,
          "internalType": "address",
          "name": "_accommodation",
          "type": "address"
        }
      ],
      "name": "ApprovalRequestCreated",
      "type": "event"
    },
    {
      "anonymous": false,
      "inputs": [
        {
          "indexed": false,
          "internalType": "address",
          "name": "token",
          "type": "address"
        },
        {
          "indexed": false,
          "internalType": "uint256",
          "name": "amount",
          "type": "uint256"
        }
      ],
      "name": "Recovered",
      "type": "event"
    },
    {
      "anonymous": false,
      "inputs": [
        {
          "indexed": false,
          "internalType": "uint256",
          "name": "reward",
          "type": "uint256"
        }
      ],
      "name": "RewardAdded",
      "type": "event"
    },
    {
      "anonymous": false,
      "inputs": [
        {
          "indexed": true,
          "internalType": "address",
          "name": "user",
          "type": "address"
        },
        {
          "indexed": false,
          "internalType": "uint256",
          "name": "reward",
          "type": "uint256"
        }
      ],
      "name": "RewardPaid",
      "type": "event"
    },
    {
      "anonymous": false,
      "inputs": [
        {
          "indexed": false,
          "internalType": "uint256",
          "name": "newDuration",
          "type": "uint256"
        }
      ],
      "name": "RewardsDurationUpdated",
      "type": "event"
    },
    {
      "anonymous": false,
      "inputs": [
        {
          "indexed": true,
          "internalType": "address",
          "name": "user",
          "type": "address"
        },
        {
          "indexed": false,
          "internalType": "uint256",
          "name": "amount",
          "type": "uint256"
        }
      ],
      "name": "Staked",
      "type": "event"
    },
    {
      "anonymous": false,
      "inputs": [
        {
          "indexed": true,
          "internalType": "address",
          "name": "user",
          "type": "address"
        },
        {
          "indexed": false,
          "internalType": "bool",
          "name": "vote",
          "type": "bool"
        }
      ],
      "name": "Voting",
      "type": "event"
    },
    {
      "anonymous": false,
      "inputs": [
        {
          "indexed": false,
          "internalType": "address",
          "name": "_staker",
          "type": "address"
        }
      ],
      "name": "WithdrawRewards",
      "type": "event"
    },
    {
      "anonymous": false,
      "inputs": [
        {
          "indexed": true,
          "internalType": "address",
          "name": "user",
          "type": "address"
        },
        {
          "indexed": false,
          "internalType": "uint256",
          "name": "amount",
          "type": "uint256"
        }
      ],
      "name": "Withdrawn",
      "type": "event"
    },
    {
      "inputs": [],
      "name": "getStakeAmount",
      "outputs": [
        {
          "internalType": "uint256",
          "name": "",
          "type": "uint256"
        }
      ],
      "stateMutability": "view",
      "type": "function"
    },
    {
      "inputs": [
        {
          "internalType": "uint256",
          "name": "_stakingamount",
          "type": "uint256"
        }
      ],
      "name": "stake",
      "outputs": [],
      "stateMutability": "nonpayable",
      "type": "function"
    },
    {
      "inputs": [],
      "name": "unstake",
      "outputs": [],
      "stateMutability": "nonpayable",
      "type": "function"
    },
    {
      "inputs": [],
      "name": "getTokenAmountForApprovalRequest",
      "outputs": [
        {
          "internalType": "uint256",
          "name": "",
          "type": "uint256"
        }
      ],
      "stateMutability": "view",
      "type": "function"
    },
    {
      "inputs": [],
      "name": "getApprovalRequestDaysToVote",
      "outputs": [
        {
          "internalType": "uint256",
          "name": "",
          "type": "uint256"
        }
      ],
      "stateMutability": "view",
      "type": "function"
    },
    {
      "inputs": [],
      "name": "getApprovalPercentage",
      "outputs": [
        {
          "internalType": "uint256",
          "name": "",
          "type": "uint256"
        }
      ],
      "stateMutability": "view",
      "type": "function"
    },
    {
      "inputs": [],
      "name": "getMinimalPercentageVoters",
      "outputs": [
        {
          "internalType": "uint256",
          "name": "",
          "type": "uint256"
        }
      ],
      "stateMutability": "view",
      "type": "function"
    },
    {
      "inputs": [
        {
          "internalType": "address",
          "name": "_propertyaddress",
          "type": "address"
        }
      ],
      "name": "getApprovalRequestInfo",
      "outputs": [
        {
          "components": [
            {
              "internalType": "bool",
              "name": "isApproved",
              "type": "bool"
            },
            {
              "internalType": "uint256",
              "name": "totalYes",
              "type": "uint256"
            },
            {
              "internalType": "uint256",
              "name": "totalVoters",
              "type": "uint256"
            },
            {
              "internalType": "uint256",
              "name": "registrationDate",
              "type": "uint256"
            },
            {
              "internalType": "bool",
              "name": "activeVoting",
              "type": "bool"
            },
            {
              "internalType": "uint256",
              "name": "treasureAmount",
              "type": "uint256"
            }
          ],
          "internalType": "struct SheepnapDAO.Property",
          "name": "",
          "type": "tuple"
        }
      ],
      "stateMutability": "view",
      "type": "function"
    },
    {
      "inputs": [
        {
          "internalType": "address",
          "name": "_propertyaddress",
          "type": "address"
        }
      ],
      "name": "getPropertyActiveVoting",
      "outputs": [
        {
          "internalType": "bool",
          "name": "",
          "type": "bool"
        }
      ],
      "stateMutability": "view",
      "type": "function"
    },
    {
      "inputs": [
        {
          "internalType": "address",
          "name": "_propertyaddress",
          "type": "address"
        }
      ],
      "name": "approvalRequest",
      "outputs": [],
      "stateMutability": "nonpayable",
      "type": "function"
    },
    {
      "inputs": [
        {
          "internalType": "address",
          "name": "_propertyaddress",
          "type": "address"
        },
        {
          "internalType": "bool",
          "name": "_vote",
          "type": "bool"
        }
      ],
      "name": "vote",
      "outputs": [],
      "stateMutability": "nonpayable",
      "type": "function"
    },
    {
      "inputs": [
        {
          "internalType": "address",
          "name": "_stakerAddress",
          "type": "address"
        }
      ],
      "name": "getVotingPower",
      "outputs": [
        {
          "internalType": "uint256",
          "name": "",
          "type": "uint256"
        }
      ],
      "stateMutability": "view",
      "type": "function"
    },
    {
      "inputs": [
        {
          "internalType": "address",
          "name": "_propertyaddress",
          "type": "address"
        }
      ],
      "name": "finalizevoting",
      "outputs": [],
      "stateMutability": "nonpayable",
      "type": "function"
    },
    {
      "inputs": [
        {
          "internalType": "address",
          "name": "_propertyaddress",
          "type": "address"
        }
      ],
      "name": "withdrawvotingrewards",
      "outputs": [],
      "stateMutability": "nonpayable",
      "type": "function"
    }
  ],
  "bytecode": "0x60806040526064600655600a6007556032600855601e6009553480156200002557600080fd5b5060405162001d6738038062001d6783398181016040528101906200004b91906200013f565b80806000806101000a81548173ffffffffffffffffffffffffffffffffffffffff021916908373ffffffffffffffffffffffffffffffffffffffff1602179055505080600560006101000a81548173ffffffffffffffffffffffffffffffffffffffff021916908373ffffffffffffffffffffffffffffffffffffffff1602179055505062000171565b600080fd5b600073ffffffffffffffffffffffffffffffffffffffff82169050919050565b60006200010782620000da565b9050919050565b6200011981620000fa565b81146200012557600080fd5b50565b60008151905062000139816200010e565b92915050565b600060208284031215620001585762000157620000d5565b5b6000620001688482850162000128565b91505092915050565b611be680620001816000396000f3fe608060405234801561001057600080fd5b50600436106100ea5760003560e01c8063722580b61161008c578063bb4d443611610066578063bb4d443614610223578063bd041c4d14610253578063db4d21031461026f578063e233e2751461028d576100ea565b8063722580b6146101cd578063a694fc3a146101eb578063b47de4dd14610207576100ea565b80634a21652c116100c85780634a21652c146101335780635f04176c1461014f5780635faae62e1461016d578063695621971461019d576100ea565b80632def6620146100ef57806330d6f63e146100f957806339ccb95714610115575b600080fd5b6100f76102ab565b005b610113600480360381019061010e9190611229565b610472565b005b61011d610771565b60405161012a919061126f565b60405180910390f35b61014d60048036038101906101489190611229565b61077b565b005b61015761094d565b604051610164919061126f565b60405180910390f35b61018760048036038101906101829190611229565b610957565b604051610194919061132f565b60405180910390f35b6101b760048036038101906101b29190611229565b610a0e565b6040516101c49190611359565b60405180910390f35b6101d5610a67565b6040516101e2919061126f565b60405180910390f35b610205600480360381019061020091906113a0565b610ab1565b005b610221600480360381019061021c9190611229565b610c61565b005b61023d60048036038101906102389190611229565b610dfb565b60405161024a919061126f565b60405180910390f35b61026d600480360381019061026891906113f9565b610e47565b005b6102776110f4565b604051610284919061126f565b60405180910390f35b6102956110fe565b6040516102a2919061126f565b60405180910390f35b600260003373ffffffffffffffffffffffffffffffffffffffff1673ffffffffffffffffffffffffffffffffffffffff16815260200190815260200160002060009054906101000a900460ff16610337576040517f08c379a000000000000000000000000000000000000000000000000000000000815260040161032e90611496565b60405180910390fd5b60008054906101000a900473ffffffffffffffffffffffffffffffffffffffff1673ffffffffffffffffffffffffffffffffffffffff1663a9059cbb30600160003373ffffffffffffffffffffffffffffffffffffffff1673ffffffffffffffffffffffffffffffffffffffff168152602001908152602001600020600001546040518363ffffffff1660e01b81526004016103d49291906114c5565b6020604051808303816000875af11580156103f3573d6000803e3d6000fd5b505050506040513d601f19601f820116820180604052508101906104179190611503565b506000600260003373ffffffffffffffffffffffffffffffffffffffff1673ffffffffffffffffffffffffffffffffffffffff16815260200190815260200160002060006101000a81548160ff021916908315150217905550565b600a60008273ffffffffffffffffffffffffffffffffffffffff1673ffffffffffffffffffffffffffffffffffffffff16815260200190815260200160002060040160009054906101000a900460ff1615610502576040517f08c379a00000000000000000000000000000000000000000000000000000000081526004016104f9906115a2565b60405180910390fd5b600654600560009054906101000a900473ffffffffffffffffffffffffffffffffffffffff1673ffffffffffffffffffffffffffffffffffffffff166370a08231336040518263ffffffff1660e01b815260040161056091906115c2565b602060405180830381865afa15801561057d573d6000803e3d6000fd5b505050506040513d601f19601f820116820180604052508101906105a191906115f2565b10156105e2576040517f08c379a00000000000000000000000000000000000000000000000000000000081526004016105d990611691565b60405180910390fd5b60006040518060c001604052806000151581526020016000815260200160008152602001428152602001600115158152602001600654815250905080600a60008473ffffffffffffffffffffffffffffffffffffffff1673ffffffffffffffffffffffffffffffffffffffff16815260200190815260200160002060008201518160000160006101000a81548160ff02191690831515021790555060208201518160010155604082015181600201556060820151816003015560808201518160040160006101000a81548160ff02191690831515021790555060a08201518160050155905050600560009054906101000a900473ffffffffffffffffffffffffffffffffffffffff1673ffffffffffffffffffffffffffffffffffffffff166323b872dd33306006546040518463ffffffff1660e01b8152600401610729939291906116b1565b6020604051808303816000875af1158015610748573d6000803e3d6000fd5b505050506040513d601f19601f8201168201806040525081019061076c9190611503565b505050565b6000600954905090565b600a60008273ffffffffffffffffffffffffffffffffffffffff1673ffffffffffffffffffffffffffffffffffffffff16815260200190815260200160002060040160009054906101000a900460ff1661080a576040517f08c379a000000000000000000000000000000000000000000000000000000000815260040161080190611734565b60405180910390fd5b610855600a60008373ffffffffffffffffffffffffffffffffffffffff1673ffffffffffffffffffffffffffffffffffffffff16815260200190815260200160002060030154611108565b610894576040517f08c379a000000000000000000000000000000000000000000000000000000000815260040161088b906117a0565b60405180910390fd5b6000600a60008373ffffffffffffffffffffffffffffffffffffffff1673ffffffffffffffffffffffffffffffffffffffff16815260200190815260200160002090506008546108ec82600101548360020154611130565b11801561090957506009546109078260020154600354611130565b115b1561092c5760018160000160006101000a81548160ff0219169083151502179055505b60008160040160006101000a81548160ff0219169083151502179055505050565b6000600754905090565b61095f61118c565b600a60008373ffffffffffffffffffffffffffffffffffffffff1673ffffffffffffffffffffffffffffffffffffffff1681526020019081526020016000206040518060c00160405290816000820160009054906101000a900460ff161515151581526020016001820154815260200160028201548152602001600382015481526020016004820160009054906101000a900460ff161515151581526020016005820154815250509050919050565b6000600a60008373ffffffffffffffffffffffffffffffffffffffff1673ffffffffffffffffffffffffffffffffffffffff16815260200190815260200160002060040160009054906101000a900460ff169050919050565b6000600160003373ffffffffffffffffffffffffffffffffffffffff1673ffffffffffffffffffffffffffffffffffffffff16815260200190815260200160002060000154905090565b60008111610af4576040517f08c379a0000000000000000000000000000000000000000000000000000000008152600401610aeb90611832565b60405180910390fd5b600060405180604001604052808381526020014281525090506001600260003373ffffffffffffffffffffffffffffffffffffffff1673ffffffffffffffffffffffffffffffffffffffff16815260200190815260200160002060006101000a81548160ff02191690831515021790555080600160003373ffffffffffffffffffffffffffffffffffffffff1673ffffffffffffffffffffffffffffffffffffffff168152602001908152602001600020600082015181600001556020820151816001015590505060008054906101000a900473ffffffffffffffffffffffffffffffffffffffff1673ffffffffffffffffffffffffffffffffffffffff166323b872dd3330856040518463ffffffff1660e01b8152600401610c19939291906116b1565b6020604051808303816000875af1158015610c38573d6000803e3d6000fd5b505050506040513d601f19601f82011682018060405250810190610c5c9190611503565b505050565b600a60008273ffffffffffffffffffffffffffffffffffffffff1673ffffffffffffffffffffffffffffffffffffffff16815260200190815260200160002060040160009054906101000a900460ff1615610cf1576040517f08c379a0000000000000000000000000000000000000000000000000000000008152600401610ce8906117a0565b60405180910390fd5b6000600a60008373ffffffffffffffffffffffffffffffffffffffff1673ffffffffffffffffffffffffffffffffffffffff16815260200190815260200160002090506000610d518260020154836005015461116090919063ffffffff16565b9050600560009054906101000a900473ffffffffffffffffffffffffffffffffffffffff1673ffffffffffffffffffffffffffffffffffffffff166323b872dd3033846040518463ffffffff1660e01b8152600401610db2939291906116b1565b6020604051808303816000875af1158015610dd1573d6000803e3d6000fd5b505050506040513d601f19601f82011682018060405250810190610df59190611503565b50505050565b6000600160008373ffffffffffffffffffffffffffffffffffffffff1673ffffffffffffffffffffffffffffffffffffffff168152602001908152602001600020600001549050919050565b600260003373ffffffffffffffffffffffffffffffffffffffff1673ffffffffffffffffffffffffffffffffffffffff16815260200190815260200160002060009054906101000a900460ff16610ed3576040517f08c379a0000000000000000000000000000000000000000000000000000000008152600401610eca9061189e565b60405180910390fd5b6000600160003373ffffffffffffffffffffffffffffffffffffffff1673ffffffffffffffffffffffffffffffffffffffff1681526020019081526020016000206000015411610f58576040517f08c379a0000000000000000000000000000000000000000000000000000000008152600401610f4f9061190a565b60405180910390fd5b600a60008373ffffffffffffffffffffffffffffffffffffffff1673ffffffffffffffffffffffffffffffffffffffff16815260200190815260200160002060040160009054906101000a900460ff16610fe7576040517f08c379a0000000000000000000000000000000000000000000000000000000008152600401610fde9061199c565b60405180910390fd5b611032600a60008473ffffffffffffffffffffffffffffffffffffffff1673ffffffffffffffffffffffffffffffffffffffff16815260200190815260200160002060030154611108565b611071576040517f08c379a000000000000000000000000000000000000000000000000000000000815260040161106890611a08565b60405180910390fd5b6000600a60008473ffffffffffffffffffffffffffffffffffffffff1673ffffffffffffffffffffffffffffffffffffffff168152602001908152602001600020905081156110d5578060010160008154809291906110cf90611a57565b91905055505b8060020160008154809291906110ea90611a57565b9190505550505050565b6000600654905090565b6000600854905090565b6000426201518060075461111c9190611aa0565b836111279190611afa565b10159050919050565b60006111588261114a60648661117690919063ffffffff16565b61116090919063ffffffff16565b905092915050565b6000818361116e9190611b7f565b905092915050565b600081836111849190611aa0565b905092915050565b6040518060c00160405280600015158152602001600081526020016000815260200160008152602001600015158152602001600081525090565b600080fd5b600073ffffffffffffffffffffffffffffffffffffffff82169050919050565b60006111f6826111cb565b9050919050565b611206816111eb565b811461121157600080fd5b50565b600081359050611223816111fd565b92915050565b60006020828403121561123f5761123e6111c6565b5b600061124d84828501611214565b91505092915050565b6000819050919050565b61126981611256565b82525050565b60006020820190506112846000830184611260565b92915050565b60008115159050919050565b61129f8161128a565b82525050565b6112ae81611256565b82525050565b60c0820160008201516112ca6000850182611296565b5060208201516112dd60208501826112a5565b5060408201516112f060408501826112a5565b50606082015161130360608501826112a5565b5060808201516113166080850182611296565b5060a082015161132960a08501826112a5565b50505050565b600060c08201905061134460008301846112b4565b92915050565b6113538161128a565b82525050565b600060208201905061136e600083018461134a565b92915050565b61137d81611256565b811461138857600080fd5b50565b60008135905061139a81611374565b92915050565b6000602082840312156113b6576113b56111c6565b5b60006113c48482850161138b565b91505092915050565b6113d68161128a565b81146113e157600080fd5b50565b6000813590506113f3816113cd565b92915050565b600080604083850312156114105761140f6111c6565b5b600061141e85828601611214565b925050602061142f858286016113e4565b9150509250929050565b600082825260208201905092915050565b7f61646472657373206973206e6f742063757272656e746c79207374616b696e67600082015250565b6000611480602083611439565b915061148b8261144a565b602082019050919050565b600060208201905081810360008301526114af81611473565b9050919050565b6114bf816111eb565b82525050565b60006040820190506114da60008301856114b6565b6114e76020830184611260565b9392505050565b6000815190506114fd816113cd565b92915050565b600060208284031215611519576115186111c6565b5b6000611527848285016114ee565b91505092915050565b7f4163636f6d6d6f646174696f6e2068617320616e2061637469766520766f746960008201527f6e672070726f6365737300000000000000000000000000000000000000000000602082015250565b600061158c602a83611439565b915061159782611530565b604082019050919050565b600060208201905081810360008301526115bb8161157f565b9050919050565b60006020820190506115d760008301846114b6565b92915050565b6000815190506115ec81611374565b92915050565b600060208284031215611608576116076111c6565b5b6000611616848285016115dd565b91505092915050565b7f496e636f727265637420616d6f756e7420666f7220617070726f76616c20726560008201527f7175657374000000000000000000000000000000000000000000000000000000602082015250565b600061167b602583611439565b91506116868261161f565b604082019050919050565b600060208201905081810360008301526116aa8161166e565b9050919050565b60006060820190506116c660008301866114b6565b6116d360208301856114b6565b6116e06040830184611260565b949350505050565b7f566f74696e6720697320656e6465640000000000000000000000000000000000600082015250565b600061171e600f83611439565b9150611729826116e8565b602082019050919050565b6000602082019050818103600083015261174d81611711565b9050919050565b7f566f74696e6720686173206e6f7420656e646564000000000000000000000000600082015250565b600061178a601483611439565b915061179582611754565b602082019050919050565b600060208201905081810360008301526117b98161177d565b9050919050565b7f5374616b696e6720616d6f756e742073686f756c64206265206772656174657260008201527f207468616e203000000000000000000000000000000000000000000000000000602082015250565b600061181c602783611439565b9150611827826117c0565b604082019050919050565b6000602082019050818103600083015261184b8161180f565b9050919050565b7f566f746572206d75737420626520616e207374616b6572000000000000000000600082015250565b6000611888601783611439565b915061189382611852565b602082019050919050565b600060208201905081810360008301526118b78161187b565b9050919050565b7f566f746572206d757374206861766520616374697665207374616b6500000000600082015250565b60006118f4601c83611439565b91506118ff826118be565b602082019050919050565b60006020820190508181036000830152611923816118e7565b9050919050565b7f4163636f6d6d6f646174696f6e20686173206e6f742061637469766520766f7460008201527f696e670000000000000000000000000000000000000000000000000000000000602082015250565b6000611986602383611439565b91506119918261192a565b604082019050919050565b600060208201905081810360008301526119b581611979565b9050919050565b7f566f74696e672068617320656e64656400000000000000000000000000000000600082015250565b60006119f2601083611439565b91506119fd826119bc565b602082019050919050565b60006020820190508181036000830152611a21816119e5565b9050919050565b7f4e487b7100000000000000000000000000000000000000000000000000000000600052601160045260246000fd5b6000611a6282611256565b91507fffffffffffffffffffffffffffffffffffffffffffffffffffffffffffffffff821415611a9557611a94611a28565b5b600182019050919050565b6000611aab82611256565b9150611ab683611256565b9250817fffffffffffffffffffffffffffffffffffffffffffffffffffffffffffffffff0483118215151615611aef57611aee611a28565b5b828202905092915050565b6000611b0582611256565b9150611b1083611256565b9250827fffffffffffffffffffffffffffffffffffffffffffffffffffffffffffffffff03821115611b4557611b44611a28565b5b828201905092915050565b7f4e487b7100000000000000000000000000000000000000000000000000000000600052601260045260246000fd5b6000611b8a82611256565b9150611b9583611256565b925082611ba557611ba4611b50565b5b82820490509291505056fea2646970667358221220519d2e9c9407099072418fba9ebe99d570d624baf2aa2afed738be41eb31586f64736f6c634300080b0033",
  "immutableReferences": {},
  "source": "// SPDX-License-Identifier: GPL-3.0\r\n\r\npragma solidity >=0.7.0 <0.9.0;\r\nimport \"@openzeppelin/contracts/token/ERC20/ERC20.sol\";\r\nimport \"@openzeppelin/contracts/utils/math/SafeMath.sol\";\r\nimport \"./Stakable.sol\";\r\n/**\r\n * @title Sheepnap DAO.\r\n * @dev Set & change owner\r\n */\r\ncontract SheepnapDAO is Stakable\r\n{\r\n    using SafeMath for uint256;\r\n\r\n    ERC20 private token;\r\n    //==== DAO system parameters ===\r\n    uint private tokenAmountForApprovalRequest = 100;\r\n    uint private approvalRequestDaysToVote = 10; \r\n    uint private approvalPercentage = 50;\r\n    uint private minimalPercentageVoters = 30; \r\n    \r\n    struct Property \r\n    {\r\n        bool isApproved;\r\n        uint totalYes;\r\n        uint totalVoters;\r\n        uint registrationDate;\r\n        bool activeVoting;\r\n        uint treasureAmount;\r\n    }\r\n\r\n    mapping(address => Property) private properties;\r\n    //voters, accommodation contract, vote\r\n    mapping(address => mapping(address => bool)) private voters;\r\n\r\n    constructor(address _tokenaddress)\r\n        Stakable(ERC20(_tokenaddress))\r\n    {\r\n        token = ERC20(_tokenaddress);\r\n    }\r\n\r\n    function getTokenAmountForApprovalRequest() public view returns (uint){\r\n        return tokenAmountForApprovalRequest;\r\n    }\r\n\r\n    function getApprovalRequestDaysToVote() public view returns (uint){\r\n        return approvalRequestDaysToVote;\r\n    }\r\n\r\n    function getApprovalPercentage() public view returns (uint){\r\n        return approvalPercentage;\r\n    }\r\n\r\n    function getMinimalPercentageVoters() public view returns (uint){\r\n        return minimalPercentageVoters;\r\n    }\r\n\r\n    function getApprovalRequestInfo(address _propertyaddress) public view returns (Property memory)\r\n    {\r\n        return properties[_propertyaddress];\r\n    }\r\n\r\n    function getPropertyActiveVoting(address _propertyaddress) \r\n        public view returns(bool)\r\n    {\r\n        return properties[_propertyaddress].activeVoting;\r\n    }\r\n\r\n    function approvalRequest(address _propertyaddress) public\r\n    {\r\n        require(!properties[_propertyaddress].activeVoting\r\n        , 'Accommodation has an active voting process');\r\n\r\n        require(token.balanceOf(msg.sender) >= tokenAmountForApprovalRequest, \r\n            'Incorrect amount for approval request');\r\n\r\n        Property memory newProperty = Property(\r\n        {\r\n          isApproved : false,\r\n          totalYes : 0,\r\n          totalVoters : 0,\r\n          registrationDate : block.timestamp,\r\n          activeVoting : true,\r\n          treasureAmount : tokenAmountForApprovalRequest\r\n        });\r\n\r\n        properties[_propertyaddress] = newProperty;\r\n        token.transferFrom(msg.sender, address(this), tokenAmountForApprovalRequest);\r\n    }\r\n\r\n    function vote(\r\n      address _propertyaddress, \r\n      bool _vote) public \r\n    {\r\n        require(stakersActive[msg.sender], 'Voter must be an staker');\r\n        require(stakers[msg.sender].balance > 0, 'Voter must have active stake');\r\n        \r\n        //require(voters[_propertyaddress][msg.sender], \"The voter already voted.\");\r\n\r\n        require(properties[_propertyaddress].activeVoting, 'Accommodation has not active voting');\r\n        require(checkExpiry(properties[_propertyaddress].registrationDate), 'Voting has ended');\r\n\r\n        Property storage property = properties[_propertyaddress];\r\n        if(_vote){\r\n            property.totalYes++;\r\n        }\r\n\r\n        property.totalVoters++;\r\n    }       \r\n\r\n    function checkExpiry(uint _starttimestamp) private view returns(bool)\r\n    {   \r\n        return _starttimestamp + (approvalRequestDaysToVote * 1 days) >= block.timestamp;     \r\n    }\r\n\r\n    function getVotingPower(address _stakerAddress) public view returns (uint256)\r\n    {\r\n        return stakers[_stakerAddress].balance;\r\n    }\r\n\r\n    function finalizevoting(address _propertyaddress) public \r\n    {   \r\n        require(properties[_propertyaddress].activeVoting, \"Voting is ended\");\r\n        require(checkExpiry(properties[_propertyaddress].registrationDate), 'Voting has not ended');\r\n\r\n        Property storage property = properties[_propertyaddress];\r\n        \r\n        if(getPercentage(property.totalYes, property.totalVoters) > approvalPercentage\r\n            && getPercentage(property.totalVoters, totalStakers) > minimalPercentageVoters)\r\n        {\r\n            property.isApproved = true;\r\n        }\r\n\r\n        property.activeVoting = false;\r\n    }\r\n\r\n    function withdrawvotingrewards(address _propertyaddress) public \r\n    {\r\n        require(!properties[_propertyaddress].activeVoting, \"Voting has not ended\");\r\n        Property storage property = properties[_propertyaddress];\r\n        uint rewards = property.treasureAmount.div(property.totalVoters);\r\n        token.transferFrom(address(this), msg.sender, rewards);\r\n    }\r\n\r\n    function getPercentage(uint _amount,  uint _totalamount) private pure returns (uint)\r\n    {\r\n        return _amount.mul(100).div(_totalamount);\r\n    }\r\n\r\n    //=== EVENTS ===== //\r\n    event ApprovalRequestCreated(address _accommodation);\r\n    event Voting(address indexed user, bool vote);\r\n    event WithdrawRewards(address _staker);\r\n}",
  "sourcePath": "C:\\Users\\ivan9\\OneDrive\\Documentos\\GitHub\\sheepnap-contracts\\contracts\\SheepnapDAO.sol",
  "compiler": {
    "name": "solc",
    "version": "0.8.11+commit.d7f03943.Emscripten.clang"
  },
  "schemaVersion": "3.4.3",
  "updatedAt": "2022-02-08T10:41:17.942Z",
  "devdoc": {
    "details": "Set & change owner",
    "kind": "dev",
    "methods": {},
    "title": "Sheepnap DAO.",
    "version": 1
  },
  "userdoc": {
    "kind": "user",
    "methods": {},
    "version": 1
  }
}