{
  "contractName": "SheepnapDAO",
  "abi": [
    {
      "inputs": [
        {
          "internalType": "address",
          "name": "_tokenaddress",
          "type": "address"
        }
      ],
      "stateMutability": "nonpayable",
      "type": "constructor"
    },
    {
      "anonymous": false,
      "inputs": [
        {
          "indexed": false,
          "internalType": "address",
          "name": "_accommodation",
          "type": "address"
        }
      ],
      "name": "ApprovalRequestCreated",
      "type": "event"
    },
    {
      "anonymous": false,
      "inputs": [
        {
          "indexed": false,
          "internalType": "address",
          "name": "token",
          "type": "address"
        },
        {
          "indexed": false,
          "internalType": "uint256",
          "name": "amount",
          "type": "uint256"
        }
      ],
      "name": "Recovered",
      "type": "event"
    },
    {
      "anonymous": false,
      "inputs": [
        {
          "indexed": false,
          "internalType": "uint256",
          "name": "reward",
          "type": "uint256"
        }
      ],
      "name": "RewardAdded",
      "type": "event"
    },
    {
      "anonymous": false,
      "inputs": [
        {
          "indexed": true,
          "internalType": "address",
          "name": "user",
          "type": "address"
        },
        {
          "indexed": false,
          "internalType": "uint256",
          "name": "reward",
          "type": "uint256"
        }
      ],
      "name": "RewardPaid",
      "type": "event"
    },
    {
      "anonymous": false,
      "inputs": [
        {
          "indexed": false,
          "internalType": "uint256",
          "name": "newDuration",
          "type": "uint256"
        }
      ],
      "name": "RewardsDurationUpdated",
      "type": "event"
    },
    {
      "anonymous": false,
      "inputs": [
        {
          "indexed": true,
          "internalType": "address",
          "name": "user",
          "type": "address"
        },
        {
          "indexed": false,
          "internalType": "uint256",
          "name": "amount",
          "type": "uint256"
        }
      ],
      "name": "Staked",
      "type": "event"
    },
    {
      "anonymous": false,
      "inputs": [
        {
          "indexed": true,
          "internalType": "address",
          "name": "user",
          "type": "address"
        },
        {
          "indexed": false,
          "internalType": "bool",
          "name": "vote",
          "type": "bool"
        }
      ],
      "name": "Voting",
      "type": "event"
    },
    {
      "anonymous": false,
      "inputs": [
        {
          "indexed": false,
          "internalType": "address",
          "name": "_staker",
          "type": "address"
        }
      ],
      "name": "WithdrawRewards",
      "type": "event"
    },
    {
      "anonymous": false,
      "inputs": [
        {
          "indexed": true,
          "internalType": "address",
          "name": "user",
          "type": "address"
        },
        {
          "indexed": false,
          "internalType": "uint256",
          "name": "amount",
          "type": "uint256"
        }
      ],
      "name": "Withdrawn",
      "type": "event"
    },
    {
      "inputs": [
        {
          "internalType": "uint256",
          "name": "_stakingamount",
          "type": "uint256"
        }
      ],
      "name": "stake",
      "outputs": [],
      "stateMutability": "nonpayable",
      "type": "function"
    },
    {
      "inputs": [],
      "name": "unstake",
      "outputs": [],
      "stateMutability": "nonpayable",
      "type": "function"
    },
    {
      "inputs": [
        {
          "internalType": "address",
          "name": "_accomodationaddress",
          "type": "address"
        }
      ],
      "name": "startAccomodationApprovalRequest",
      "outputs": [],
      "stateMutability": "nonpayable",
      "type": "function"
    },
    {
      "inputs": [
        {
          "internalType": "address",
          "name": "_accommodationaddress",
          "type": "address"
        },
        {
          "internalType": "bool",
          "name": "_vote",
          "type": "bool"
        }
      ],
      "name": "vote",
      "outputs": [],
      "stateMutability": "nonpayable",
      "type": "function"
    },
    {
      "inputs": [
        {
          "internalType": "address",
          "name": "_stakerAddress",
          "type": "address"
        }
      ],
      "name": "getVotingPower",
      "outputs": [
        {
          "internalType": "uint256",
          "name": "",
          "type": "uint256"
        }
      ],
      "stateMutability": "view",
      "type": "function"
    },
    {
      "inputs": [
        {
          "internalType": "address",
          "name": "_accomodationaddress",
          "type": "address"
        }
      ],
      "name": "finalizevoting",
      "outputs": [],
      "stateMutability": "nonpayable",
      "type": "function"
    },
    {
      "inputs": [
        {
          "internalType": "address",
          "name": "_accomodationaddress",
          "type": "address"
        }
      ],
      "name": "withdrawvotingrewards",
      "outputs": [],
      "stateMutability": "nonpayable",
      "type": "function"
    }
  ],
  "bytecode": "0x60806040526064600655600a6007556032600855601e6009553480156200002557600080fd5b5060405162001aa038038062001aa083398181016040528101906200004b91906200013f565b80806000806101000a81548173ffffffffffffffffffffffffffffffffffffffff021916908373ffffffffffffffffffffffffffffffffffffffff1602179055505080600560006101000a81548173ffffffffffffffffffffffffffffffffffffffff021916908373ffffffffffffffffffffffffffffffffffffffff1602179055505062000171565b600080fd5b600073ffffffffffffffffffffffffffffffffffffffff82169050919050565b60006200010782620000da565b9050919050565b6200011981620000fa565b81146200012557600080fd5b50565b60008151905062000139816200010e565b92915050565b600060208284031215620001585762000157620000d5565b5b6000620001688482850162000128565b91505092915050565b61191f80620001816000396000f3fe608060405234801561001057600080fd5b506004361061007d5760003560e01c8063a694fc3a1161005b578063a694fc3a146100c4578063b47de4dd146100e0578063bb4d4436146100fc578063bd041c4d1461012c5761007d565b80632def6620146100825780633e89d7181461008c5780634a21652c146100a8575b600080fd5b61008a610148565b005b6100a660048036038101906100a19190610fd4565b61030f565b005b6100c260048036038101906100bd9190610fd4565b61060e565b005b6100de60048036038101906100d99190611037565b6107e0565b005b6100fa60048036038101906100f59190610fd4565b610990565b005b61011660048036038101906101119190610fd4565b610b2a565b6040516101239190611073565b60405180910390f35b610146600480360381019061014191906110c6565b610b76565b005b600260003373ffffffffffffffffffffffffffffffffffffffff1673ffffffffffffffffffffffffffffffffffffffff16815260200190815260200160002060009054906101000a900460ff166101d4576040517f08c379a00000000000000000000000000000000000000000000000000000000081526004016101cb90611163565b60405180910390fd5b60008054906101000a900473ffffffffffffffffffffffffffffffffffffffff1673ffffffffffffffffffffffffffffffffffffffff1663a9059cbb30600160003373ffffffffffffffffffffffffffffffffffffffff1673ffffffffffffffffffffffffffffffffffffffff168152602001908152602001600020600001546040518363ffffffff1660e01b8152600401610271929190611192565b6020604051808303816000875af1158015610290573d6000803e3d6000fd5b505050506040513d601f19601f820116820180604052508101906102b491906111d0565b506000600260003373ffffffffffffffffffffffffffffffffffffffff1673ffffffffffffffffffffffffffffffffffffffff16815260200190815260200160002060006101000a81548160ff021916908315150217905550565b600a60008273ffffffffffffffffffffffffffffffffffffffff1673ffffffffffffffffffffffffffffffffffffffff16815260200190815260200160002060040160009054906101000a900460ff161561039f576040517f08c379a00000000000000000000000000000000000000000000000000000000081526004016103969061126f565b60405180910390fd5b600654600560009054906101000a900473ffffffffffffffffffffffffffffffffffffffff1673ffffffffffffffffffffffffffffffffffffffff166370a08231336040518263ffffffff1660e01b81526004016103fd919061128f565b602060405180830381865afa15801561041a573d6000803e3d6000fd5b505050506040513d601f19601f8201168201806040525081019061043e91906112bf565b101561047f576040517f08c379a00000000000000000000000000000000000000000000000000000000081526004016104769061135e565b60405180910390fd5b60006040518060c001604052806000151581526020016000815260200160008152602001428152602001600115158152602001600654815250905080600a60008473ffffffffffffffffffffffffffffffffffffffff1673ffffffffffffffffffffffffffffffffffffffff16815260200190815260200160002060008201518160000160006101000a81548160ff02191690831515021790555060208201518160010155604082015181600201556060820151816003015560808201518160040160006101000a81548160ff02191690831515021790555060a08201518160050155905050600560009054906101000a900473ffffffffffffffffffffffffffffffffffffffff1673ffffffffffffffffffffffffffffffffffffffff166323b872dd33306006546040518463ffffffff1660e01b81526004016105c69392919061137e565b6020604051808303816000875af11580156105e5573d6000803e3d6000fd5b505050506040513d601f19601f8201168201806040525081019061060991906111d0565b505050565b600a60008273ffffffffffffffffffffffffffffffffffffffff1673ffffffffffffffffffffffffffffffffffffffff16815260200190815260200160002060040160009054906101000a900460ff1661069d576040517f08c379a000000000000000000000000000000000000000000000000000000000815260040161069490611401565b60405180910390fd5b6106e8600a60008373ffffffffffffffffffffffffffffffffffffffff1673ffffffffffffffffffffffffffffffffffffffff16815260200190815260200160002060030154610eed565b610727576040517f08c379a000000000000000000000000000000000000000000000000000000000815260040161071e9061146d565b60405180910390fd5b6000600a60008373ffffffffffffffffffffffffffffffffffffffff1673ffffffffffffffffffffffffffffffffffffffff168152602001908152602001600020905060085461077f82600101548360020154610f15565b11801561079c575060095461079a8260020154600354610f15565b115b156107bf5760018160000160006101000a81548160ff0219169083151502179055505b60008160040160006101000a81548160ff0219169083151502179055505050565b60008111610823576040517f08c379a000000000000000000000000000000000000000000000000000000000815260040161081a906114ff565b60405180910390fd5b600060405180604001604052808381526020014281525090506001600260003373ffffffffffffffffffffffffffffffffffffffff1673ffffffffffffffffffffffffffffffffffffffff16815260200190815260200160002060006101000a81548160ff02191690831515021790555080600160003373ffffffffffffffffffffffffffffffffffffffff1673ffffffffffffffffffffffffffffffffffffffff168152602001908152602001600020600082015181600001556020820151816001015590505060008054906101000a900473ffffffffffffffffffffffffffffffffffffffff1673ffffffffffffffffffffffffffffffffffffffff166323b872dd3330856040518463ffffffff1660e01b81526004016109489392919061137e565b6020604051808303816000875af1158015610967573d6000803e3d6000fd5b505050506040513d601f19601f8201168201806040525081019061098b91906111d0565b505050565b600a60008273ffffffffffffffffffffffffffffffffffffffff1673ffffffffffffffffffffffffffffffffffffffff16815260200190815260200160002060040160009054906101000a900460ff1615610a20576040517f08c379a0000000000000000000000000000000000000000000000000000000008152600401610a179061146d565b60405180910390fd5b6000600a60008373ffffffffffffffffffffffffffffffffffffffff1673ffffffffffffffffffffffffffffffffffffffff16815260200190815260200160002090506000610a8082600201548360050154610f4590919063ffffffff16565b9050600560009054906101000a900473ffffffffffffffffffffffffffffffffffffffff1673ffffffffffffffffffffffffffffffffffffffff166323b872dd3033846040518463ffffffff1660e01b8152600401610ae19392919061137e565b6020604051808303816000875af1158015610b00573d6000803e3d6000fd5b505050506040513d601f19601f82011682018060405250810190610b2491906111d0565b50505050565b6000600160008373ffffffffffffffffffffffffffffffffffffffff1673ffffffffffffffffffffffffffffffffffffffff168152602001908152602001600020600001549050919050565b600260003373ffffffffffffffffffffffffffffffffffffffff1673ffffffffffffffffffffffffffffffffffffffff16815260200190815260200160002060009054906101000a900460ff16610c02576040517f08c379a0000000000000000000000000000000000000000000000000000000008152600401610bf99061156b565b60405180910390fd5b6000600160003373ffffffffffffffffffffffffffffffffffffffff1673ffffffffffffffffffffffffffffffffffffffff1681526020019081526020016000206000015411610c87576040517f08c379a0000000000000000000000000000000000000000000000000000000008152600401610c7e906115d7565b60405180910390fd5b600b60008373ffffffffffffffffffffffffffffffffffffffff1673ffffffffffffffffffffffffffffffffffffffff16815260200190815260200160002060003373ffffffffffffffffffffffffffffffffffffffff1673ffffffffffffffffffffffffffffffffffffffff16815260200190815260200160002060009054906101000a900460ff16610d50576040517f08c379a0000000000000000000000000000000000000000000000000000000008152600401610d4790611643565b60405180910390fd5b600a60008373ffffffffffffffffffffffffffffffffffffffff1673ffffffffffffffffffffffffffffffffffffffff16815260200190815260200160002060040160009054906101000a900460ff16610ddf576040517f08c379a0000000000000000000000000000000000000000000000000000000008152600401610dd6906116d5565b60405180910390fd5b610e2a600a60008473ffffffffffffffffffffffffffffffffffffffff1673ffffffffffffffffffffffffffffffffffffffff16815260200190815260200160002060030154610eed565b15610e6a576040517f08c379a0000000000000000000000000000000000000000000000000000000008152600401610e6190611741565b60405180910390fd5b6000600a60008473ffffffffffffffffffffffffffffffffffffffff1673ffffffffffffffffffffffffffffffffffffffff16815260200190815260200160002090508115610ece57806001016000815480929190610ec890611790565b91905055505b806002016000815480929190610ee390611790565b9190505550505050565b60004262015180600754610f0191906117d9565b83610f0c9190611833565b10159050919050565b6000610f3d82610f2f606486610f5b90919063ffffffff16565b610f4590919063ffffffff16565b905092915050565b60008183610f5391906118b8565b905092915050565b60008183610f6991906117d9565b905092915050565b600080fd5b600073ffffffffffffffffffffffffffffffffffffffff82169050919050565b6000610fa182610f76565b9050919050565b610fb181610f96565b8114610fbc57600080fd5b50565b600081359050610fce81610fa8565b92915050565b600060208284031215610fea57610fe9610f71565b5b6000610ff884828501610fbf565b91505092915050565b6000819050919050565b61101481611001565b811461101f57600080fd5b50565b6000813590506110318161100b565b92915050565b60006020828403121561104d5761104c610f71565b5b600061105b84828501611022565b91505092915050565b61106d81611001565b82525050565b60006020820190506110886000830184611064565b92915050565b60008115159050919050565b6110a38161108e565b81146110ae57600080fd5b50565b6000813590506110c08161109a565b92915050565b600080604083850312156110dd576110dc610f71565b5b60006110eb85828601610fbf565b92505060206110fc858286016110b1565b9150509250929050565b600082825260208201905092915050565b7f61646472657373206973206e6f742063757272656e746c79207374616b696e67600082015250565b600061114d602083611106565b915061115882611117565b602082019050919050565b6000602082019050818103600083015261117c81611140565b9050919050565b61118c81610f96565b82525050565b60006040820190506111a76000830185611183565b6111b46020830184611064565b9392505050565b6000815190506111ca8161109a565b92915050565b6000602082840312156111e6576111e5610f71565b5b60006111f4848285016111bb565b91505092915050565b7f4163636f6d6d6f646174696f6e2068617320616e2061637469766520766f746960008201527f6e672070726f6365737300000000000000000000000000000000000000000000602082015250565b6000611259602a83611106565b9150611264826111fd565b604082019050919050565b600060208201905081810360008301526112888161124c565b9050919050565b60006020820190506112a46000830184611183565b92915050565b6000815190506112b98161100b565b92915050565b6000602082840312156112d5576112d4610f71565b5b60006112e3848285016112aa565b91505092915050565b7f496e636f727265637420616d6f756e7420666f7220617070726f76616c20726560008201527f7175657374000000000000000000000000000000000000000000000000000000602082015250565b6000611348602583611106565b9150611353826112ec565b604082019050919050565b600060208201905081810360008301526113778161133b565b9050919050565b60006060820190506113936000830186611183565b6113a06020830185611183565b6113ad6040830184611064565b949350505050565b7f566f74696e6720697320656e6465640000000000000000000000000000000000600082015250565b60006113eb600f83611106565b91506113f6826113b5565b602082019050919050565b6000602082019050818103600083015261141a816113de565b9050919050565b7f566f74696e6720686173206e6f7420656e646564000000000000000000000000600082015250565b6000611457601483611106565b915061146282611421565b602082019050919050565b600060208201905081810360008301526114868161144a565b9050919050565b7f5374616b696e6720616d6f756e742073686f756c64206265206772656174657260008201527f207468616e203000000000000000000000000000000000000000000000000000602082015250565b60006114e9602783611106565b91506114f48261148d565b604082019050919050565b60006020820190508181036000830152611518816114dc565b9050919050565b7f566f746572206d75737420626520616e207374616b6572000000000000000000600082015250565b6000611555601783611106565b91506115608261151f565b602082019050919050565b6000602082019050818103600083015261158481611548565b9050919050565b7f566f746572206d757374206861766520616374697665207374616b6500000000600082015250565b60006115c1601c83611106565b91506115cc8261158b565b602082019050919050565b600060208201905081810360008301526115f0816115b4565b9050919050565b7f54686520766f74657220616c726561647920766f7465642e0000000000000000600082015250565b600061162d601883611106565b9150611638826115f7565b602082019050919050565b6000602082019050818103600083015261165c81611620565b9050919050565b7f4163636f6d6d6f646174696f6e20686173206e6f742061637469766520766f7460008201527f696e670000000000000000000000000000000000000000000000000000000000602082015250565b60006116bf602383611106565b91506116ca82611663565b604082019050919050565b600060208201905081810360008301526116ee816116b2565b9050919050565b7f566f74696e672068617320656e64656400000000000000000000000000000000600082015250565b600061172b601083611106565b9150611736826116f5565b602082019050919050565b6000602082019050818103600083015261175a8161171e565b9050919050565b7f4e487b7100000000000000000000000000000000000000000000000000000000600052601160045260246000fd5b600061179b82611001565b91507fffffffffffffffffffffffffffffffffffffffffffffffffffffffffffffffff8214156117ce576117cd611761565b5b600182019050919050565b60006117e482611001565b91506117ef83611001565b9250817fffffffffffffffffffffffffffffffffffffffffffffffffffffffffffffffff048311821515161561182857611827611761565b5b828202905092915050565b600061183e82611001565b915061184983611001565b9250827fffffffffffffffffffffffffffffffffffffffffffffffffffffffffffffffff0382111561187e5761187d611761565b5b828201905092915050565b7f4e487b7100000000000000000000000000000000000000000000000000000000600052601260045260246000fd5b60006118c382611001565b91506118ce83611001565b9250826118de576118dd611889565b5b82820490509291505056fea2646970667358221220c70143cd9381b14a82f523b2ff5bab517db61d9e12bedc5324b8f043714edb3c64736f6c634300080b0033",
  "immutableReferences": {},
  "source": "// SPDX-License-Identifier: GPL-3.0\n\npragma solidity >=0.7.0 <0.9.0;\nimport \"@openzeppelin/contracts/token/ERC20/ERC20.sol\";\nimport \"@openzeppelin/contracts/utils/math/SafeMath.sol\";\nimport \"./Stakable.sol\";\nimport \"./Voting.sol\";\n/**\n * @title Sheepnap DAO.\n * @dev Set & change owner\n */\ncontract SheepnapDAO is Stakable\n{\n    using SafeMath for uint256;\n\n    ERC20 private token;\n    //==== DAO system parameters ===\n    uint private tokenAmountForApprovalRequest = 100;\n    uint private approvalRequestDaysToVote = 10; \n    uint private approvalPercentage = 50;\n    uint private minimalPercentageVoters = 30; \n    \n    struct Accommodation \n    {\n        bool isApproved;\n        uint totalYes;\n        uint totalVoters;\n        uint registrationDate;\n        bool activeVoting;\n        uint treasureAmount;\n    }\n\n    mapping(address => Accommodation) private accommodations;\n    //voters, accommodation contract, vote\n    mapping(address => mapping(address => bool)) private voters;\n\n    constructor(address _tokenaddress)\n        Stakable(ERC20(_tokenaddress))\n    {\n        token = ERC20(_tokenaddress);\n    }\n\n    function startAccomodationApprovalRequest(\n        address _accomodationaddress) public\n    {\n        require(!accommodations[_accomodationaddress].activeVoting\n        , 'Accommodation has an active voting process');\n\n        require(token.balanceOf(msg.sender) >= tokenAmountForApprovalRequest, \n            'Incorrect amount for approval request');\n\n        Accommodation memory newAccommodation = Accommodation(\n        {\n          isApproved : false,\n          totalYes : 0,\n          totalVoters : 0,\n          registrationDate : block.timestamp,\n          activeVoting : true,\n          treasureAmount : tokenAmountForApprovalRequest\n        });\n\n        accommodations[_accomodationaddress] = newAccommodation;\n        token.transferFrom(msg.sender, address(this), tokenAmountForApprovalRequest);\n    }\n\n    function vote(\n      address _accommodationaddress, \n      bool _vote) public \n    {\n        require(stakersActive[msg.sender], 'Voter must be an staker');\n        require(stakers[msg.sender].balance > 0, 'Voter must have active stake');\n        \n        require(voters[_accommodationaddress][msg.sender], \"The voter already voted.\");\n\n        require(accommodations[_accommodationaddress].activeVoting, 'Accommodation has not active voting');\n        require(!checkExpiry(accommodations[_accommodationaddress].registrationDate), 'Voting has ended');\n\n        Accommodation storage accommodation = accommodations[_accommodationaddress];\n        if(_vote){\n            accommodation.totalYes++;\n        }\n\n        accommodation.totalVoters++;\n    }       \n\n    function checkExpiry(uint _starttimestamp) private view returns(bool)\n    {   \n        return _starttimestamp + (approvalRequestDaysToVote * 1 days) >= block.timestamp;     \n    }\n\n    function getVotingPower(address _stakerAddress) public view returns (uint256)\n    {\n        return stakers[_stakerAddress].balance;\n    }\n\n    function finalizevoting(address _accomodationaddress) public \n    {   \n        require(accommodations[_accomodationaddress].activeVoting, \"Voting is ended\");\n        require(checkExpiry(accommodations[_accomodationaddress].registrationDate), 'Voting has not ended');\n\n        Accommodation storage accommodation = accommodations[_accomodationaddress];\n        \n        if(\n               getPercentage(accommodation.totalYes, accommodation.totalVoters) > approvalPercentage\n            && getPercentage(accommodation.totalVoters, totalStakers) > minimalPercentageVoters)\n        {\n            accommodation.isApproved = true;\n        }\n\n        accommodation.activeVoting = false;\n    }\n\n    function withdrawvotingrewards(address _accomodationaddress) public \n    {\n        require(!accommodations[_accomodationaddress].activeVoting, \"Voting has not ended\");\n        Accommodation storage accommodation = accommodations[_accomodationaddress];\n        uint rewards = accommodation.treasureAmount.div(accommodation.totalVoters);\n        token.transferFrom(address(this), msg.sender, rewards);\n    }\n\n    function getPercentage(uint _amount,  uint _totalamount) private pure returns (uint)\n    {\n        return _amount.mul(100).div(_totalamount);\n    }\n\n    //=== EVENTS ===== //\n    event ApprovalRequestCreated(address _accommodation);\n    event Voting(address indexed user, bool vote);\n    event WithdrawRewards(address _staker);\n\n}",
  "sourcePath": "/Users/santiagomarinrojas/Documents/GitHub/sheepnap-contracts/contracts/SheepnapDAO.sol",
  "compiler": {
    "name": "solc",
    "version": "0.8.11+commit.d7f03943.Emscripten.clang"
  },
  "schemaVersion": "3.4.3",
  "updatedAt": "2022-01-20T19:38:35.941Z",
  "devdoc": {
    "details": "Set & change owner",
    "kind": "dev",
    "methods": {},
    "title": "Sheepnap DAO.",
    "version": 1
  },
  "userdoc": {
    "kind": "user",
    "methods": {},
    "version": 1
  }
}