{
  "contractName": "SheepnapDAO",
  "abi": [
    {
      "inputs": [
        {
          "internalType": "address",
          "name": "_woolToken",
          "type": "address"
        }
      ],
      "stateMutability": "nonpayable",
      "type": "constructor"
    },
    {
      "anonymous": false,
      "inputs": [
        {
          "indexed": true,
          "internalType": "address",
          "name": "user",
          "type": "address"
        },
        {
          "indexed": false,
          "internalType": "uint256",
          "name": "amount",
          "type": "uint256"
        },
        {
          "indexed": false,
          "internalType": "uint256",
          "name": "index",
          "type": "uint256"
        },
        {
          "indexed": false,
          "internalType": "uint256",
          "name": "timestamp",
          "type": "uint256"
        }
      ],
      "name": "StakingStarted",
      "type": "event"
    },
    {
      "anonymous": false,
      "inputs": [
        {
          "indexed": true,
          "internalType": "address",
          "name": "user",
          "type": "address"
        },
        {
          "indexed": false,
          "internalType": "bool",
          "name": "vote",
          "type": "bool"
        }
      ],
      "name": "Voting",
      "type": "event"
    },
    {
      "inputs": [
        {
          "internalType": "uint256",
          "name": "_amount",
          "type": "uint256"
        }
      ],
      "name": "stake",
      "outputs": [],
      "stateMutability": "nonpayable",
      "type": "function"
    },
    {
      "inputs": [],
      "name": "unstake",
      "outputs": [],
      "stateMutability": "nonpayable",
      "type": "function"
    },
    {
      "inputs": [
        {
          "internalType": "address",
          "name": "_staker",
          "type": "address"
        }
      ],
      "name": "withdrawRewards",
      "outputs": [],
      "stateMutability": "nonpayable",
      "type": "function"
    },
    {
      "inputs": [
        {
          "internalType": "address",
          "name": "_accomodationaddress",
          "type": "address"
        },
        {
          "internalType": "bool",
          "name": "_vote",
          "type": "bool"
        }
      ],
      "name": "vote",
      "outputs": [],
      "stateMutability": "nonpayable",
      "type": "function"
    },
    {
      "inputs": [
        {
          "internalType": "address",
          "name": "_stakerAddress",
          "type": "address"
        }
      ],
      "name": "getVotingPower",
      "outputs": [
        {
          "internalType": "uint256",
          "name": "",
          "type": "uint256"
        }
      ],
      "stateMutability": "view",
      "type": "function"
    },
    {
      "inputs": [
        {
          "internalType": "address",
          "name": "_accomodationaddress",
          "type": "address"
        },
        {
          "internalType": "uint256",
          "name": "_amount",
          "type": "uint256"
        }
      ],
      "name": "startAccomodationApprovalRequest",
      "outputs": [],
      "stateMutability": "nonpayable",
      "type": "function"
    },
    {
      "inputs": [
        {
          "internalType": "address",
          "name": "accomodationaddress",
          "type": "address"
        }
      ],
      "name": "finalizevoting",
      "outputs": [],
      "stateMutability": "nonpayable",
      "type": "function"
    }
  ],
  "bytecode": "0x608060405234801561001057600080fd5b50604051610a92380380610a92833981810160405281019061003291906100e4565b80600360006101000a81548173ffffffffffffffffffffffffffffffffffffffff021916908373ffffffffffffffffffffffffffffffffffffffff160217905550606460028190555050610111565b600080fd5b600073ffffffffffffffffffffffffffffffffffffffff82169050919050565b60006100b182610086565b9050919050565b6100c1816100a6565b81146100cc57600080fd5b50565b6000815190506100de816100b8565b92915050565b6000602082840312156100fa576100f9610081565b5b6000610108848285016100cf565b91505092915050565b610972806101206000396000f3fe608060405234801561001057600080fd5b506004361061007d5760003560e01c80635eef1e701161005b5780635eef1e70146100c4578063a694fc3a146100e0578063bb4d4436146100fc578063bd041c4d1461012c5761007d565b80632def66201461008257806342d866931461008c5780634a21652c146100a8575b600080fd5b61008a610148565b005b6100a660048036038101906100a19190610550565b61014a565b005b6100c260048036038101906100bd9190610550565b61014d565b005b6100de60048036038101906100d991906105b3565b6101df565b005b6100fa60048036038101906100f591906105f3565b61042d565b005b61011660048036038101906101119190610550565b610430565b604051610123919061062f565b60405180910390f35b61014660048036038101906101419190610682565b61047b565b005b565b50565b600460008273ffffffffffffffffffffffffffffffffffffffff1673ffffffffffffffffffffffffffffffffffffffff16815260200190815260200160002060040160009054906101000a900460ff166101dc576040517f08c379a00000000000000000000000000000000000000000000000000000000081526004016101d39061071f565b60405180910390fd5b50565b600460008373ffffffffffffffffffffffffffffffffffffffff1673ffffffffffffffffffffffffffffffffffffffff16815260200190815260200160002060040160009054906101000a900460ff161561026f576040517f08c379a0000000000000000000000000000000000000000000000000000000008152600401610266906107b1565b60405180910390fd5b606481146102b2576040517f08c379a00000000000000000000000000000000000000000000000000000000081526004016102a99061081d565b60405180910390fd5b600360009054906101000a900473ffffffffffffffffffffffffffffffffffffffff1673ffffffffffffffffffffffffffffffffffffffff1663a9059cbb30836040518363ffffffff1660e01b815260040161030f92919061084c565b6020604051808303816000875af115801561032e573d6000803e3d6000fd5b505050506040513d601f19601f82011682018060405250810190610352919061088a565b5060006040518060a0016040528060001515815260200160008152602001600081526020016000815260200160011515815250905080600460008573ffffffffffffffffffffffffffffffffffffffff1673ffffffffffffffffffffffffffffffffffffffff16815260200190815260200160002060008201518160000160006101000a81548160ff02191690831515021790555060208201518160010155604082015181600201556060820151816003015560808201518160040160006101000a81548160ff021916908315150217905550905050505050565b50565b60008060008373ffffffffffffffffffffffffffffffffffffffff1673ffffffffffffffffffffffffffffffffffffffff168152602001908152602001600020600001549050919050565b6000600460008473ffffffffffffffffffffffffffffffffffffffff1673ffffffffffffffffffffffffffffffffffffffff168152602001908152602001600020905081156104e8576104cd33610430565b8160010160008282546104e091906108e6565b925050819055505b505050565b600080fd5b600073ffffffffffffffffffffffffffffffffffffffff82169050919050565b600061051d826104f2565b9050919050565b61052d81610512565b811461053857600080fd5b50565b60008135905061054a81610524565b92915050565b600060208284031215610566576105656104ed565b5b60006105748482850161053b565b91505092915050565b6000819050919050565b6105908161057d565b811461059b57600080fd5b50565b6000813590506105ad81610587565b92915050565b600080604083850312156105ca576105c96104ed565b5b60006105d88582860161053b565b92505060206105e98582860161059e565b9150509250929050565b600060208284031215610609576106086104ed565b5b60006106178482850161059e565b91505092915050565b6106298161057d565b82525050565b60006020820190506106446000830184610620565b92915050565b60008115159050919050565b61065f8161064a565b811461066a57600080fd5b50565b60008135905061067c81610656565b92915050565b60008060408385031215610699576106986104ed565b5b60006106a78582860161053b565b92505060206106b88582860161066d565b9150509250929050565b600082825260208201905092915050565b7f566f74696e6720697320656e6465640000000000000000000000000000000000600082015250565b6000610709600f836106c2565b9150610714826106d3565b602082019050919050565b60006020820190508181036000830152610738816106fc565b9050919050565b7f4163636f6d6d6f646174696f6e2068617320616e2061637469766520766f746960008201527f6e672070726f6365737300000000000000000000000000000000000000000000602082015250565b600061079b602a836106c2565b91506107a68261073f565b604082019050919050565b600060208201905081810360008301526107ca8161078e565b9050919050565b7f496e636f727265637420616d6f756e7400000000000000000000000000000000600082015250565b60006108076010836106c2565b9150610812826107d1565b602082019050919050565b60006020820190508181036000830152610836816107fa565b9050919050565b61084681610512565b82525050565b6000604082019050610861600083018561083d565b61086e6020830184610620565b9392505050565b60008151905061088481610656565b92915050565b6000602082840312156108a05761089f6104ed565b5b60006108ae84828501610875565b91505092915050565b7f4e487b7100000000000000000000000000000000000000000000000000000000600052601160045260246000fd5b60006108f18261057d565b91506108fc8361057d565b9250827fffffffffffffffffffffffffffffffffffffffffffffffffffffffffffffffff03821115610931576109306108b7565b5b82820190509291505056fea2646970667358221220f4b77bb32bb26c6d23425aa558ccdf00cee1463db33341885f161172e9ffcfa064736f6c634300080b0033",
  "immutableReferences": {},
  "source": "// SPDX-License-Identifier: GPL-3.0\n\npragma solidity >=0.7.0 <0.9.0;\nimport \"@openzeppelin/contracts/token/ERC20/ERC20.sol\";\nimport \"./Stakable.sol\";\n/**\n * @title Sheepnap DAO.\n * @dev Set & change owner\n */\ncontract SheepnapDAO is Stakable\n{\n    constructor(address _woolToken)\n    {\n        woolToken = ERC20(_woolToken);\n        woolTokensToApprovalRequest = 100;\n    }\n\n    uint private woolTokensToApprovalRequest;\n    ERC20 private woolToken;\n    mapping(address => Accommodation) private accommodations;\n\n    struct Accommodation {\n        bool isApproved;\n        uint totalYes;\n        uint totalVoters;\n        uint registrationDate;\n        bool activeVoting;\n    }\n\n    function vote(\n      address _accomodationaddress, \n      bool _vote) public \n    {\n        Accommodation storage accommodation = accommodations[_accomodationaddress];\n        if(_vote){\n            accommodation.totalYes += getVotingPower(msg.sender);\n        }\n    }\n\n    function getVotingPower(address _stakerAddress) \n    public view returns (uint256)\n    {\n        return stakers[_stakerAddress].amount;\n    }\n\n    function startAccomodationApprovalRequest(\n        address _accomodationaddress\n      , uint256 _amount) public\n    {\n        require(!accommodations[_accomodationaddress].activeVoting\n        , 'Accommodation has an active voting process');\n\n        require(_amount == 100, 'Incorrect amount');\n\n        woolToken.transfer(address(this), _amount);\n\n        Accommodation memory newAccommodation = Accommodation(\n        {\n          isApproved : false,\n          totalYes : 0,\n          totalVoters : 0,\n          registrationDate : 0,\n          activeVoting : true\n        });\n\n        accommodations[_accomodationaddress] = newAccommodation;\n\n\n    }\n\n    function finalizevoting(address accomodationaddress) public \n    {\n        require(accommodations[accomodationaddress].activeVoting, \n        \"Voting is ended\");\n    }\n\n    event Voting(address indexed user, bool vote);\n}",
  "sourcePath": "/Users/santiagomarinrojas/Documents/Sheepnap/DAOContracts/contracts/SheepnapDAO.sol",
  "compiler": {
    "name": "solc",
    "version": "0.8.11+commit.d7f03943.Emscripten.clang"
  },
  "schemaVersion": "3.4.3",
  "updatedAt": "2022-01-06T18:45:33.096Z",
  "devdoc": {
    "details": "Set & change owner",
    "kind": "dev",
    "methods": {},
    "title": "Sheepnap DAO.",
    "version": 1
  },
  "userdoc": {
    "kind": "user",
    "methods": {},
    "version": 1
  }
}