{
  "contractName": "Stakable",
  "abi": [
    {
      "inputs": [
        {
          "internalType": "contract ERC20",
          "name": "_woolToken",
          "type": "address"
        }
      ],
      "stateMutability": "nonpayable",
      "type": "constructor"
    },
    {
      "anonymous": false,
      "inputs": [
        {
          "indexed": false,
          "internalType": "address",
          "name": "token",
          "type": "address"
        },
        {
          "indexed": false,
          "internalType": "uint256",
          "name": "amount",
          "type": "uint256"
        }
      ],
      "name": "Recovered",
      "type": "event"
    },
    {
      "anonymous": false,
      "inputs": [
        {
          "indexed": false,
          "internalType": "uint256",
          "name": "reward",
          "type": "uint256"
        }
      ],
      "name": "RewardAdded",
      "type": "event"
    },
    {
      "anonymous": false,
      "inputs": [
        {
          "indexed": true,
          "internalType": "address",
          "name": "user",
          "type": "address"
        },
        {
          "indexed": false,
          "internalType": "uint256",
          "name": "reward",
          "type": "uint256"
        }
      ],
      "name": "RewardPaid",
      "type": "event"
    },
    {
      "anonymous": false,
      "inputs": [
        {
          "indexed": false,
          "internalType": "uint256",
          "name": "newDuration",
          "type": "uint256"
        }
      ],
      "name": "RewardsDurationUpdated",
      "type": "event"
    },
    {
      "anonymous": false,
      "inputs": [
        {
          "indexed": true,
          "internalType": "address",
          "name": "user",
          "type": "address"
        },
        {
          "indexed": false,
          "internalType": "uint256",
          "name": "amount",
          "type": "uint256"
        }
      ],
      "name": "Staked",
      "type": "event"
    },
    {
      "anonymous": false,
      "inputs": [
        {
          "indexed": true,
          "internalType": "address",
          "name": "user",
          "type": "address"
        },
        {
          "indexed": false,
          "internalType": "uint256",
          "name": "amount",
          "type": "uint256"
        }
      ],
      "name": "Withdrawn",
      "type": "event"
    },
    {
      "inputs": [
        {
          "internalType": "uint256",
          "name": "_stakingamount",
          "type": "uint256"
        }
      ],
      "name": "stake",
      "outputs": [],
      "stateMutability": "nonpayable",
      "type": "function"
    },
    {
      "inputs": [],
      "name": "unstake",
      "outputs": [],
      "stateMutability": "nonpayable",
      "type": "function"
    }
  ],
  "bytecode": "0x608060405234801561001057600080fd5b506040516107c33803806107c3833981810160405281019061003291906100ed565b806000806101000a81548173ffffffffffffffffffffffffffffffffffffffff021916908373ffffffffffffffffffffffffffffffffffffffff1602179055505061011a565b600080fd5b600073ffffffffffffffffffffffffffffffffffffffff82169050919050565b60006100a88261007d565b9050919050565b60006100ba8261009d565b9050919050565b6100ca816100af565b81146100d557600080fd5b50565b6000815190506100e7816100c1565b92915050565b60006020828403121561010357610102610078565b5b6000610111848285016100d8565b91505092915050565b61069a806101296000396000f3fe608060405234801561001057600080fd5b50600436106100365760003560e01c80632def66201461003b578063a694fc3a14610045575b600080fd5b610043610061565b005b61005f600480360381019061005a9190610413565b610228565b005b600260003373ffffffffffffffffffffffffffffffffffffffff1673ffffffffffffffffffffffffffffffffffffffff16815260200190815260200160002060009054906101000a900460ff166100ed576040517f08c379a00000000000000000000000000000000000000000000000000000000081526004016100e49061049d565b60405180910390fd5b60008054906101000a900473ffffffffffffffffffffffffffffffffffffffff1673ffffffffffffffffffffffffffffffffffffffff1663a9059cbb30600160003373ffffffffffffffffffffffffffffffffffffffff1673ffffffffffffffffffffffffffffffffffffffff168152602001908152602001600020600001546040518363ffffffff1660e01b815260040161018a92919061050d565b6020604051808303816000875af11580156101a9573d6000803e3d6000fd5b505050506040513d601f19601f820116820180604052508101906101cd919061056e565b506000600260003373ffffffffffffffffffffffffffffffffffffffff1673ffffffffffffffffffffffffffffffffffffffff16815260200190815260200160002060006101000a81548160ff021916908315150217905550565b6000811161026b576040517f08c379a00000000000000000000000000000000000000000000000000000000081526004016102629061060d565b60405180910390fd5b600060405180604001604052808381526020014281525090506001600260003373ffffffffffffffffffffffffffffffffffffffff1673ffffffffffffffffffffffffffffffffffffffff16815260200190815260200160002060006101000a81548160ff02191690831515021790555080600160003373ffffffffffffffffffffffffffffffffffffffff1673ffffffffffffffffffffffffffffffffffffffff168152602001908152602001600020600082015181600001556020820151816001015590505060008054906101000a900473ffffffffffffffffffffffffffffffffffffffff1673ffffffffffffffffffffffffffffffffffffffff166323b872dd3330856040518463ffffffff1660e01b81526004016103909392919061062d565b6020604051808303816000875af11580156103af573d6000803e3d6000fd5b505050506040513d601f19601f820116820180604052508101906103d3919061056e565b505050565b600080fd5b6000819050919050565b6103f0816103dd565b81146103fb57600080fd5b50565b60008135905061040d816103e7565b92915050565b600060208284031215610429576104286103d8565b5b6000610437848285016103fe565b91505092915050565b600082825260208201905092915050565b7f61646472657373206973206e6f742063757272656e746c79207374616b696e67600082015250565b6000610487602083610440565b915061049282610451565b602082019050919050565b600060208201905081810360008301526104b68161047a565b9050919050565b600073ffffffffffffffffffffffffffffffffffffffff82169050919050565b60006104e8826104bd565b9050919050565b6104f8816104dd565b82525050565b610507816103dd565b82525050565b600060408201905061052260008301856104ef565b61052f60208301846104fe565b9392505050565b60008115159050919050565b61054b81610536565b811461055657600080fd5b50565b60008151905061056881610542565b92915050565b600060208284031215610584576105836103d8565b5b600061059284828501610559565b91505092915050565b7f5374616b696e6720616d6f756e742073686f756c64206265206772656174657260008201527f207468616e203000000000000000000000000000000000000000000000000000602082015250565b60006105f7602783610440565b91506106028261059b565b604082019050919050565b60006020820190508181036000830152610626816105ea565b9050919050565b600060608201905061064260008301866104ef565b61064f60208301856104ef565b61065c60408301846104fe565b94935050505056fea2646970667358221220564b99e12fb7253bcdeae88d41bf3de61456755d03d6e28ed9fae8bb2e94de7564736f6c634300080b0033",
  "immutableReferences": {},
  "source": "// SPDX-License-Identifier: MIT\npragma solidity >=0.7.0 <0.9.0;\nimport \"@openzeppelin/contracts/token/ERC20/ERC20.sol\";\n\ncontract Stakable\n{\n  struct Staker\n  {\n      uint256 balance;\n      uint256 timestampSince;      \n  }\n\n  ERC20 private woolToken;\n  \n  mapping(address => Staker) internal stakers;\n  mapping(address => bool) internal stakersActive;\n  uint internal totalStakers;\n  uint internal treasure;\n\n  constructor(ERC20 _woolToken) \n  {\n    woolToken = _woolToken;\n  }\n\n  function stake(uint _stakingamount) public\n  {\n    require(_stakingamount > 0, \"Staking amount should be greater than 0\");\n\n    Staker memory staker = Staker(\n    {\n      balance : _stakingamount,\n      timestampSince : block.timestamp\n    });\n    \n    stakersActive[msg.sender] = true;    \n    stakers[msg.sender] = staker;\n\n    woolToken.transferFrom(msg.sender, address(this), _stakingamount);\n  }\n\n  function unstake() public \n  {\n    require(stakersActive[msg.sender], 'address is not currently staking');\n\n    woolToken.transfer(address(this), stakers[msg.sender].balance);\n    stakersActive[msg.sender] = false;\n  }\n\n  function addAmountToTreasure(uint _amount) internal\n  {\n    treasure += _amount;\n  }\n\n  function getStakeInfluence(address _address) internal view returns (uint)\n  {\n    return woolToken.balanceOf(_address);\n  }\n\n  /* ========== EVENTS ========== */\n  event RewardAdded(uint256 reward);\n  event Staked(address indexed user, uint256 amount);\n  event Withdrawn(address indexed user, uint256 amount);\n  event RewardPaid(address indexed user, uint256 reward);\n  event RewardsDurationUpdated(uint256 newDuration);\n  event Recovered(address token, uint256 amount);\n}\n",
  "sourcePath": "/Users/santiagomarinrojas/Documents/GitHub/sheepnap-contracts/contracts/Stakable.sol",
  "compiler": {
    "name": "solc",
    "version": "0.8.11+commit.d7f03943.Emscripten.clang"
  },
  "schemaVersion": "3.4.3",
  "updatedAt": "2022-01-20T19:38:35.947Z",
  "devdoc": {
    "kind": "dev",
    "methods": {},
    "version": 1
  },
  "userdoc": {
    "kind": "user",
    "methods": {},
    "version": 1
  }
}