{
  "contractName": "Stakable",
  "abi": [
    {
      "inputs": [],
      "stateMutability": "nonpayable",
      "type": "constructor"
    },
    {
      "anonymous": false,
      "inputs": [
        {
          "indexed": true,
          "internalType": "address",
          "name": "user",
          "type": "address"
        },
        {
          "indexed": false,
          "internalType": "uint256",
          "name": "amount",
          "type": "uint256"
        },
        {
          "indexed": false,
          "internalType": "uint256",
          "name": "index",
          "type": "uint256"
        },
        {
          "indexed": false,
          "internalType": "uint256",
          "name": "timestamp",
          "type": "uint256"
        }
      ],
      "name": "StakingStarted",
      "type": "event"
    },
    {
      "inputs": [
        {
          "internalType": "uint256",
          "name": "_amount",
          "type": "uint256"
        }
      ],
      "name": "stake",
      "outputs": [],
      "stateMutability": "nonpayable",
      "type": "function"
    },
    {
      "inputs": [],
      "name": "unstake",
      "outputs": [],
      "stateMutability": "nonpayable",
      "type": "function"
    },
    {
      "inputs": [
        {
          "internalType": "address",
          "name": "_staker",
          "type": "address"
        }
      ],
      "name": "withdrawRewards",
      "outputs": [],
      "stateMutability": "nonpayable",
      "type": "function"
    }
  ],
  "bytecode": "0x608060405234801561001057600080fd5b506101b9806100206000396000f3fe608060405234801561001057600080fd5b50600436106100415760003560e01c80632def66201461004657806342d8669314610050578063a694fc3a1461006c575b600080fd5b61004e610088565b005b61006a600480360381019061006591906100f3565b61008a565b005b61008660048036038101906100819190610156565b61008d565b005b565b50565b50565b600080fd5b600073ffffffffffffffffffffffffffffffffffffffff82169050919050565b60006100c082610095565b9050919050565b6100d0816100b5565b81146100db57600080fd5b50565b6000813590506100ed816100c7565b92915050565b60006020828403121561010957610108610090565b5b6000610117848285016100de565b91505092915050565b6000819050919050565b61013381610120565b811461013e57600080fd5b50565b6000813590506101508161012a565b92915050565b60006020828403121561016c5761016b610090565b5b600061017a84828501610141565b9150509291505056fea26469706673582212203c6e3770bc2390d25f9a3e29401f34a18173b020b36cea8509c61632dd1fbff064736f6c634300080b0033",
  "immutableReferences": {},
  "source": "// SPDX-License-Identifier: MIT\npragma solidity >=0.7.0 <0.9.0;\n\ncontract Stakable \n{\n  struct Staker\n  {\n      uint256 amount;\n      uint256 timestampSince;      \n  }\n\n  mapping(address => Staker) internal stakers;\n  mapping(address => bool) private stakersActive;\n\n  constructor() \n  {\n\n  }\n\n  function stake(uint _amount) public\n  {\n\n  }\n\n  function unstake() public \n  {\n    \n  }\n\n  function withdrawRewards(address _staker) public\n  {\n      \n  } \n\n\n\n  event StakingStarted(address indexed user, uint256 amount, uint256 index, uint256 timestamp);\n}\n",
  "sourcePath": "/Users/santiagomarinrojas/Documents/Sheepnap/DAOContracts/contracts/Stakable.sol",
  "compiler": {
    "name": "solc",
    "version": "0.8.11+commit.d7f03943.Emscripten.clang"
  },
  "schemaVersion": "3.4.3",
  "updatedAt": "2022-01-06T18:45:33.100Z",
  "devdoc": {
    "kind": "dev",
    "methods": {},
    "version": 1
  },
  "userdoc": {
    "kind": "user",
    "methods": {},
    "version": 1
  }
}